:020000040000FA
:04000000C7EF3CF01A
:040008005CEF39F080
:080018009FEF38F0D9CFE5FF9E
:10002000E1CFD9FF00C0E5FF01C0E5FF02C0E5FF59
:1000300003C0E5FF04C0E5FF05C0E5FF0A015B6BF7
:100040000A0E016E5D0E006E800E026E0250E56EAD
:100050000150E56E0050E56E3BEC36F0030EE126F4
:100060005DCA00F0016A0050020A02E1015002E09C
:100070003AEF03F00F0E006E0A0E026E5D0E016E77
:10008000800E036E0350E56E0250E56E0150E56E82
:100090003BEC36F0030EE12600060050EDE10801CE
:1000A0001EA516D0040E006E0A0E026E5D0E016EC5
:1000B000800E036E0350E56E0250E56E0150E56E52
:1000C0003BEC36F0030EE12600060050EDE116D0C1
:1000D000080E026E2B0E016E800E036E000EE56E92
:1000E000040EE56E0350E56E0250E56E0150E56EBC
:1000F0005FEC2FF0050EE12608013781080E006E37
:100100000A0E026E5D0E016E800E036E0350E56EE8
:100110000250E56E0150E56E3BEC36F0030EE12631
:1001200000060050EDE1016A01C002F0036A000E12
:10013000035C02E1060E025C24E20A0E036E5D0E11
:10014000026E800E046E0450E56E0350E56E0250A0
:10015000E56E3BEC36F0030EE1262D0E0124026E17
:10016000036A0E0E032202C0E9FF03C0EAFFEFCFCD
:1001700002F00A015D51021802E071EF03F0012A5A
:10018000D3D7CE0E006E0A0E026E5D0E016E800E8B
:10019000036E0350E56E0250E56E0150E56E3BECD8
:1001A00036F0030EE12600060050EDE1016A0A0E6A
:1001B000036E5D0E026E800E046E0450E56E0350F9
:1001C000E56E0250E56E3BEC36F0026E030EE12662
:1001D0000250D8B43AEF03F05DCA02F0036A02504D
:1001E000010A03E1035001E158D00250030A03E180
:1001F000035001E19CD00250330A03E1035001E1B6
:100200005AD10250350A02E103500EE00250360A7C
:1002100003E1035001E1F2D00250FF0A03E1035071
:1002200001E146D107EF03F00A0E036E5D0E026E88
:10023000800E046E0450E56E0350E56E0250E56ECC
:100240003BEC36F0030EE1265DCA02F0036A025071
:10025000010A02E1035002E071EF03F00A0E036E9F
:100260005B0E026E800E046E0450E56E0350E56E68
:100270000250E56E3BEC36F0030EE12608011EA5A8
:1002800036EF03F05BCA02F0036A0250020A04E18F
:10029000035002E171EF03F0E9D10A0E036E5D0E27
:1002A000026E800E046E0450E56E0350E56E02503F
:1002B000E56E3BEC36F0030EE1265DCA02F0036A00
:1002C0000250040A02E1035002E071EF03F008015A
:1002D0001EA516D0040E006E0A0E036E5D0E026E91
:1002E000800E046E0450E56E0350E56E0250E56E1C
:1002F0003BEC36F0030EE12600060050EDE1B6D1EE
:10030000080E036E330E026E800E046E000EE56E54
:10031000040EE56E0450E56E0350E56E0250E56E86
:100320005FEC2FF0050EE126080137859FD10A0EFC
:10033000036E5C0E026E800E046E0450E56E035078
:10034000E56E0250E56E3BEC36F0030EE1265CCA2A
:1003500002F0036A000E035C02E1040E025CD8A006
:10036000C0D108011EA516D0040E006E0A0E036E41
:100370005D0E026E800E046E0450E56E0350E56E55
:100380000250E56E3BEC36F0030EE126000600500D
:10039000EDE116D0080E036E2F0E026E800E046E75
:1003A000000EE56E040EE56E0450E56E0350E56E3A
:1003B0000250E56E5FEC2FF0050EE1260801378351
:1003C000FC0E0A015C275CCA02F002C003F00206C0
:1003D00002C05CFA0350D8B444D10A0E046E5D0E1C
:1003E000036E800E056E0550E56E0450E56E0350F9
:1003F000E56E3BEC36F0030EE126E7D70A0E046EFD
:100400005D0E036E800E056E0550E56E0450E56EC0
:100410000350E56E3BEC36F0030EE1265DCA03F0B7
:10042000046A0350040A02E1045001E05AD1080EA4
:10043000046EDD0E036E800E056E0550E56E0450F1
:10044000E56E0350E56E3BEC36F0030EE126080E38
:10045000046EDC0E036E800E056E0550E56E0450D2
:10046000E56E0350E56E3BEC36F0030EE126080E18
:10047000046EDB0E036E800E056E0550E56E0450B3
:10048000E56E0350E56E3BEC36F0030EE126080EF8
:10049000046EDA0E036E800E056E0550E56E045094
:1004A000E56E0350E56E3BEC36F0030EE126DED040
:1004B000010E016EDBD00A0E046E5D0E036E800E1F
:1004C000056E0550E56E0450E56E0350E56E3BEC9D
:1004D00036F0030EE1265DCA03F0046A0350040AF5
:1004E00002E1045001E0FDD008011EA515D0040E64
:1004F000006E0A0E046E5D0E036E800E056E0550D2
:10050000E56E0450E56E0350E56E3BEC36F0030EED
:10051000E126002EEED7AAD0080E036E260E006E3E
:10052000800E046E0450E56E0350E56E0050E56EDB
:100530003BEC36F0030EE126080E036E250E006E2E
:10054000800E046E0450E56E0350E56E0050E56EBB
:100550003BEC36F0030EE126080E036E240E006E0F
:10056000800E046E0450E56E0350E56E0050E56E9B
:100570003BEC36F0030EE126080E036E230E006EF0
:10058000800E046E0450E56E0350E56E0050E56E7B
:100590003BEC36F0030EE126080123390F0B006E09
:1005A00008012439036EF00B031A002603320032CF
:1005B00008012551E838E840F80B031208012539F5
:1005C0000F0B046E08012639056EF00B051A042680
:1005D0000532043200500801235D006E035008010B
:1005E0002459036E045008012559046E0550080172
:1005F0002659056E00500801236F03500801246F2F
:1006000004500801256F05500801266F2FD00A0EEF
:10061000036E5C0E006E800E046E0450E56E035097
:10062000E56E0050E56E3BEC36F0030EE1265CCA49
:1006300000F000C003F0000600C05CFA035014E0B4
:100640000A0E046E5D0E036E800E056E0550E56E9B
:100650000450E56E0350E56E3BEC36F0030EE126E8
:10066000E8D702C05CFA02D000C05CFA0150D8B4EE
:10067000D7EF00F05BCA00F0016A0050020A16E1F1
:10068000015001E013D00801DA510801276F080179
:10069000DB510801286F0801DC510801296F0801AE
:1006A000DD5108012A6F08011E8516D00801275167
:1006B0000801DA190FE1080128510801DB190AE1E4
:1006C000080129510801DC1905E108012A51080136
:1006D000DD1902E00A015B6BF8EC3BF00A015B51AB
:1006E00003D0F8EC3BF0E86AE4CF05F0E4CF04F087
:1006F000E4CF03F0E4CF02F0E4CF01F0E4CF00F068
:10070000E4CFD9FF1200D9CFE5FFE1CFD9FF00C078
:10071000E5FF01C0E5FF02C0E5FF03C0E5FF04C03F
:10072000E5FF05C0E5FF06C0E5FF07C0E5FF08C01F
:10073000E5FF006A00C001F0026A000E025C02E1FF
:10074000010E015CD8B0E3EF06F0006A1DC801F0AD
:100750000D0E015CD8B0E0EF06F009C0E5FF0AC05D
:10076000E5FF0A6A01340A36E8340A36FC0B096EE2
:10077000000EFB6E070EFA6E900E09260A50FA2242
:10078000D8B0FB2A0950E4CF0AF0E4CF09F0F96EA3
:10079000E2EF03F0E4EF03F007EF04F078EF04F08A
:1007A000BFEF04F00AEF05F0B1EF05F036EF06F009
:1007B0006CEF06F036EF06F06CEF06F036EF06F061
:1007C0006CEF06F0E0EF06F0000EE56E430EE56E0E
:1007D000000EE56E000EE56E000EE56E000EE56E95
:1007E000440EE56E6EEC19F0016E070EE126015025
:1007F00008011C6F1CC801F0026A0150FF0A04E1E5
:10080000025002E1E0EF06F0020E08011D6F3C0EFF
:100810000801236F0801246B0801256B0801266B72
:100820000801376B08011E9108011E95E4EC3AF0AF
:10083000016E0150D8B4E0EF06F008011C51E56EDE
:100840006AEC35F0016EF3CF02F0E12A010E025C92
:1008500002E12C0E015CD8A0E0EF06F0016A08016D
:100860001EB9012A010E011A0150010BE838F46E7D
:1008700008011E51EF0BF41008011E6F08011C51F6
:100880000E0DF3CF01F0026A600E0126000E022267
:10089000000EE56E0A0EE56EFF0EE56E0250E56E87
:1008A0000150E56E8CEC31F0050EE126000EE56E90
:1008B000010EE56E86EC0AF0020EE12620EC3CF01B
:1008C000016EF3CF02F0F4CF03F0E9CF04F0015052
:1008D00008011F6F02500801206F03500801216FAB
:1008E00004500801226F030E08011D6FE0EF06F0AF
:1008F00008011C51E56E37EC38F0016EF3CF02F0C1
:10090000E12A000E025C02E1FA0E015C28E220EC12
:100910003CF0016EF3CF02F0F4CF03F0E9CF04F026
:1009200008011F51015E08012051025A080121519E
:10093000035A08012251045A000E045C08E1010E1A
:10094000035C05E13D0E025C02E1E40E015CD8A00F
:10095000E0EF06F0020E08011D6FE0EF06F008015F
:100960001E870EEC00F0016E026A0150020A02E1DD
:10097000025002E0E0EF06F0040E08011D6F0801CE
:100980001C51E56E6AEC35F0016EF3CF02F0E12AFE
:10099000010E025C02E1020E015CD8A0E0EF06F05D
:1009A00008011C510E0DF3CF01F0026A600E012602
:1009B000000E0222000EE56E0A0EE56EFF0EE56ED9
:1009C0000250E56E0150E56E8CEC31F0050EE1262B
:1009D000000EE56E030EE56E86EC0AF0020EE126CF
:1009E00020EC3CF0016EF3CF02F0F4CF03F0E9CF3E
:1009F00004F0015008011F6F02500801206F0350DE
:100A00000801216F04500801226F050E08011D6FB7
:100A1000E0EF06F008011C51E56E37EC38F0016E8E
:100A2000F3CF02F0E12A000E025C02E1FA0E015C53
:100A300026E220EC3CF0016EF3CF02F0F4CF03F09D
:100A4000E9CF04F008011F51015E08012051025A4C
:100A500008012151035A08012251045A000E045C76
:100A600008E1010E035C05E13D0E025C02E1E40ECB
:100A7000015CD8A0A5D1020E08011D6FA1D10EEC1A
:100A800000F0016E026A0150050A02E1025007E01F
:100A90000150060A03E1025001E15FD091D1080143
:100AA0001C51E56EB2EC35F0E12A08011C6920EC1E
:100AB0003CF0016EF3CF02F0F4CF03F0E9CF04F085
:100AC000015008011F6F02500801206F03500801F8
:100AD000216F04500801226F060E08011D6F0801E6
:100AE0001E8308011E81080137A110D008012B5177
:100AF0000E01006F08012C510E01016F08012D51EC
:100B00000E01026F08012E510E01036F080137A577
:100B100010D0080133510E01046F080134510E0149
:100B2000056F080135510E01066F080136510E019F
:100B3000076F080137A344D108012F510E01086F38
:100B4000080130510E01096F080131510E010A6F81
:100B5000080132510E010B6F33D1020E08011D6FD7
:100B60002FD120EC3CF0016EF3CF02F0F4CF03F074
:100B7000E9CF04F01FC805F020C806F021C807F02F
:100B800022C808F00550015E0650025A0750035A69
:100B90000850045A000E045C08E1000E035C05E1F5
:100BA0009E0E025C02E1F20E015CD8A009D123C8BE
:100BB00001F024C802F025C803F026C804F0000E96
:100BC000045C08E1000E035C05E1000E025C02E13A
:100BD000020E015C29E3F20E05269E0E0622000E8F
:100BE0000722000E0822055008011F6F0650080159
:100BF000206F07500801216F08500801226FFF0E77
:100C00000126FF0E0222FF0E0322FF0E04220150D6
:100C10000801236F02500801246F03500801256F5B
:100C200004500801266FCCD0000EE56E430EE56E31
:100C3000000EE56E000EE56E000EE56E000EE56E30
:100C4000440EE56E6EEC19F0016E070EE1260150C0
:100C500008011C6F1CC801F0026A0150FF0A03E181
:100C6000025001E1ADD0070E08011D6F08011C51B3
:100C7000E56E6AEC35F0016EF3CF02F0E12A010E69
:100C8000025C02E1020E015CD8A09AD0010EE56E72
:100C9000030EE56E86EC0AF0020EE12608011E95B1
:100CA00020EC3CF0016EF3CF02F0F4CF03F0E9CF7B
:100CB00004F0015008011F6F02500801206F03501B
:100CC0000801216F04500801226F1DC801F0012A9C
:100CD000015008011D6F74D008011C51E56E37ECFE
:100CE00038F0016EF3CF02F0E12A000E025C02E15F
:100CF000FA0E015C30E220EC3CF0016EF3CF02F022
:100D0000F4CF03F0E9CF04F008011F51015E0801A0
:100D10002051025A08012151035A08012251045A54
:100D2000000E045C08E1010E035C05E13D0E025C6F
:100D300002E1E40E015CD8A043D008011D29016E38
:100D4000015008011D6F0D0E015CD8A039D0020EB4
:100D500008011D6F35D00EEC00F0016E026A0150E3
:100D6000050A02E1025006E00150060A29E102509C
:100D700024E026D008011C51E56EB2EC35F0E12AE2
:100D800008011C6920EC3CF0016EF3CF02F0F4CFB7
:100D900003F0E9CF04F0015008011F6F0250080171
:100DA000206F03500801216F04500801226F060EC6
:100DB00008011D6F08011E8303D0020E08011D6F7C
:100DC000002A9AEF03F0E4CF08F0E4CF07F0E4CF75
:100DD00006F0E4CF05F0E4CF04F0E4CF03F0E4CF75
:100DE00002F0E4CF01F0E4CF00F0E4CFD9FF12002D
:100DF000D9CFE5FFE1CFD9FF00C0E5FF01C0E5FF96
:100E000002C0E5FF03C0E5FF04C0E5FF05C0E5FF44
:100E100006C0E5FF07C0E5FF08C0E5FF09C0E5FF24
:100E20000AC0E5FF0BC0E5FF0CC0E5FF020EDBCFFB
:100E300000F0030EDBCF01F00801E26B0801E36B69
:100E40000801E46B0801E56B0801E26B0801E36B44
:100E50000801E46B0801E56B0801E26B0801E36B34
:100E60000801E46B0801E56B0801E26B0801E36B24
:100E70000801E46B0801E56B0801E26B0801E36B14
:100E80000801E46B0801E56B0801E26B0801E36B04
:100E90000801E26B0801E36B0801E26B0801E36BF8
:100EA0000801E2910801E2930801E2950801E29746
:100EB0000801E2990801E29B0801E29D0801E29F16
:100EC0000801E3910801E3930801E3950801E39722
:100ED0000801E3990801E39B0801E39D0801E39FF2
:100EE0000801E46B0801E56B0801E46B0801E56BA0
:100EF0000801E46B0801E56B0801E4910801E49343
:100F00000801E4950801E4970801E4990801E49BCD
:100F10000801E49D0801E49F0801E5910801E593BB
:100F20000801E5950801E5970801E5990801E59BA9
:100F30000801E59D0801E59F0801E2910801E2939F
:100F40000801E2950801E2970801E2990801E29B95
:100F50000801E29D0801E29F0801E3910801E39383
:100F60000801E3950801E3970801E3990801E39B71
:100F70000801E39D0801E39F0801E4910801E4935F
:100F80000801E4950801E4970801E4990801E49B4D
:100F90000801E49D0801E49F0801E5910801E5933B
:100FA0000801E5950801E5970801E5990801E59B29
:100FB0000801E59D0801E59F7BCF02F0036A02501E
:100FC000056E046A7ACF02F0036A045002120550DB
:100FD000031200500110D8B47DD0000E015C02E174
:100FE000150E005C04E3140E046E056A04D000C004
:100FF00004F001C005F004C035FA05C036FA080E49
:10100000076E500E066E800E086E0550E56E045099
:10101000E56E0850E56E0750E56E0650E56ED1ECC2
:101020002FF0050EE1260450005E0550015A0A011A
:1010300035A113D0500E0A013525046E080E0A01A1
:101040003621056E04C0E9FF05C0EAFF000EEF6E11
:101050000A01352B02E30A01362B080E056E500EED
:10106000046E800E066E35CA07F036CA08F00750C7
:101070000810D8B4AED704C0E9FF05C0F3FF06508E
:10108000B8EC3BF0096EF3CF0AF0020E0426000E16
:101090000522000E06220B6A0C6A0801E25109269D
:1010A0000801E3510A220801E4510B220801E5512D
:1010B0000C2209500801E26F0A500801E36F0B503F
:1010C0000801E46F0C500801E56FFE0E0726D8A05A
:1010D0000806CDD70250006E016A00507A6E0350A8
:1010E000026E036A036A02507B6EE2C800F0E3C836
:1010F00001F0026A036AE4C804F0E5C805F0066A74
:10110000076A0450002605500122065002220750AB
:10111000032200500801E26F01500801E36F025002
:101120000801E46F03500801E56F0801E45108016C
:10113000E225006E0801E5510801E321016E00502F
:101140000801E26F01500801E36F0801E21D006E23
:101150000801E31D016E01C0F3FF0050E4CF0CF065
:10116000E4CF0BF0E4CF0AF0E4CF09F0E4CF08F0CD
:10117000E4CF07F0E4CF06F0E4CF05F0E4CF04F0CD
:10118000E4CF03F0E4CF02F0E4CF01F0E4CF00F0CD
:10119000E4CFD9FF1200D9CFE5FFE1CFD9FF00C0DE
:1011A000E5FF01C0E5FF02C0E5FF03C0E5FF04C0A5
:1011B000E5FF05C0E5FF06C0E5FF07C0E5FF08C085
:1011C000E5FF09C0E5FF0AC0E5FF0BC0E5FF0CC065
:1011D000E5FF0DC0E5FF0EC0E5FF0FC0E5FF10C045
:1011E000E5FF11C0E5FF12C0E5FF13C0E5FF14C025
:1011F000E5FF15C0E5FF16C0E5FF17C0E5FF18C005
:10120000E5FF19C0E5FF1AC0E5FF1BC0E5FF020EB0
:10121000DBCF00F0030EDBCF01F0040EDBCF02F0DA
:10122000050EDBCF03F0060EDBCF04F0070EDBCF9D
:1012300005F0080EDBCF06F0090EDBCF07F00A0E33
:10124000DBCF08F0FF0E096E000E0B6E600E0A6E0B
:10125000800E0C6E0D6A0050020F0E6E000E012003
:101260000F6E000E0220106E0EC0E9FF0FC0F3FFDC
:101270001050B8EC3BF00E6EF3CF0FF00AC010F038
:101280000BC011F00CC012F0136A13C014F0156AF1
:10129000000E155C02E10A0E145CD8B0B4D01050F8
:1012A0000C0F146E000E1120156E000E1220166E1B
:1012B00014C0E9FF15C0F3FF1650B8EC3BF0146EF4
:1012C000F3CF15F014500E1803E115500F1801E07C
:1012D00090D010500A0F146E000E1120156E000EE3
:1012E0001220166E14C0E9FF15C0F3FF1650B8ECBB
:1012F0003BF0146EF3CF15F000C0E9FF01C0F3FF1F
:101300000250B8EC3BF0166EF3CF17F014501618DD
:1013100003E11550171801E06AD010C0E9FF11C0B1
:10132000F3FF125048EC3BF0146EF3CF15F0F4CFFE
:1013300016F0E9CF17F003C0E9FF04C0F3FF055032
:1013400048EC3BF0186EF3CF19F0F4CF1AF0E9CF68
:101350001BF0145018180AE11550191807E116501F
:101360001A1804E117501B1801E13FD006C0E9FF2D
:1013700007C0F3FF085048EC3BF0146EF3CF15F0B4
:10138000F4CF16F0E9CF17F01450FF0A09E1155019
:10139000FF0A06E11650FF0A03E11750FF0A25E095
:1013A0000E01041D186E0E01051D196E0E01061D9D
:1013B0001A6E0E01071D1B6E0E01005118120E0150
:1013C000015119120E0102511A120E0103511B1282
:1013D0001450181809E11550191806E116501A187A
:1013E00003E117501B1801E002D00D5054D013C078
:1013F00009F00E0E1026000E1122000E1222132AE2
:1014000013C00DF042D709C006F0076A0650FF0A64
:1014100003E1075001E13ED009500E0DF3CF06F075
:10142000076A600E0626000E072207500B6E065054
:101430000A6E800E0C6E000EE56E0A0EE56E05500B
:10144000E56E0450E56E0350E56E0C50E56E0B50F2
:10145000E56E0A50E56E71EC2DF0080EE1260A0EDD
:101460000A26000E0B22000E0C2200C0E9FF01C06C
:10147000F3FF0250B8EC3BF0006EF3CF01F000C078
:10148000E5FF01C0F4FF0AC0E9FF0BC0F3FF0C50F9
:10149000D3EC3CF00950E4CF1BF0E4CF1AF0E4CFDA
:1014A00019F0E4CF18F0E4CF17F0E4CF16F0E4CF52
:1014B00015F0E4CF14F0E4CF13F0E4CF12F0E4CF52
:1014C00011F0E4CF10F0E4CF0FF0E4CF0EF0E4CF52
:1014D0000DF0E4CF0CF0E4CF0BF0E4CF0AF0E4CF52
:1014E00009F0E4CF08F0E4CF07F0E4CF06F0E4CF52
:1014F00005F0E4CF04F0E4CF03F0E4CF02F0E4CF52
:1015000001F0E4CF00F0E4CFD9FF1200D9CFE5FF1E
:10151000E1CFD9FF00C0E5FF01C0E5FF02C0E5FF54
:1015200003C0E5FF04C0E5FF05C0E5FF06C0E5FF19
:1015300007C0E5FF08C0E5FF020EDBCF00F0030E99
:10154000DBCF01F0010EE56E8CEC34F0E12A010EE8
:10155000E56E8CEC34F0E12A060EE56E8CEC34F08E
:10156000E12A000EE56E8CEC34F0E12A120EE56EF5
:101570008CEC34F0E12A230EE56E8CEC34F0E12A99
:10158000340EE56E8CEC34F0E12A560EE56E8CECF0
:1015900034F0E12A000EE56E8CEC34F0E12A000E06
:1015A000E56E8CEC34F0E12A08011EA902D0026A33
:1015B00002D0800E026E0250E56E8CEC34F0E12A0F
:1015C000000EE56E8CEC34F0E12A00C002F0036AF4
:1015D000046A0250030A03E1035001E1042A0450A3
:1015E00017E0015015E0080E066E2B0E056E800EFA
:1015F000076E000EE56E040EE56E0750E56E0650B0
:10160000E56E0550E56E74EC2EF0050EE12614D063
:10161000000EE56E8CEC34F0E12A000EE56E8CECE9
:1016200034F0E12A000EE56E8CEC34F0E12A000E75
:10163000E56E8CEC34F0E12A0C0E056E000EE56EC2
:101640008CEC34F0E12A05060550F8E10E0E076E29
:101650002D0E066E800E086E000EE56E060EE56E0F
:101660000850E56E0750E56E0650E56E74EC2EF0FE
:10167000050EE126CA0E056E000EE56E8CEC34F008
:10168000E12A052EF9D7630EE56E8CEC34F0E12AE1
:10169000820EE56E8CEC34F0E12A530EE56E8CEC94
:1016A00034F0E12A630EE56E8CEC34F0E12A350E5D
:1016B000E56E8CEC34F0E12A010EE56E8CEC34F032
:1016C000E12A0050E56E8CEC34F0E12A006A025009
:1016D000010A03E1035001E1002A005002E0080181
:1016E0001E95045024E0015022E1360EE56E8CEC8C
:1016F00034F0E12A040EE56E8CEC34F0E12A0801A6
:101700002A51E56E8CEC34F0E12A08012951E56E8E
:101710008CEC34F0E12A08012851E56E8CEC34F0B1
:10172000E12A08012751E56E8CEC34F0E12A370EEE
:10173000E56E8CEC34F0E12A040EE56E8CEC34F0AE
:10174000E12A010EE56E8CEC34F0E12A030EE56E21
:101750008CEC34F0E12A060EE56E8CEC34F0E12AD4
:101760000C0EE56E8CEC34F0E12A045002E00150DE
:101770000BE0005027E008012B5108012C11080153
:101780002D1108012E111EE0320EE56E8CEC34F0A6
:10179000E12A040EE56E8CEC34F0E12A080E026EAC
:1017A0002B0E006E800E036E000EE56E040EE56ECD
:1017B0000350E56E0250E56E0050E56E74EC2EF0BD
:1017C000050EE126FF0EE56E8CEC34F0E12A010EE9
:1017D0000A01565D03E12C0E0A01555D06E2000E7A
:1017E000E56E8CEC34F0E12AF2D70E0100510801CD
:1017F000DE6F0E0101510801DF6F0E010251080179
:10180000E06F0E0103510801E16F015008E10E0184
:10181000006B0E01016B0E01026B0E01036B15ECE8
:1018200014F00801DE510E01006F0801DF510E01B6
:10183000016F0801E0510E01026F0801E1510E0134
:10184000036FE4CF08F0E4CF07F0E4CF06F0E4CF75
:1018500005F0E4CF04F0E4CF03F0E4CF02F0E4CFEE
:1018600001F0E4CF00F0E4CFD9FF1200D9CFE5FFBB
:10187000E1CFD9FF00C0E5FF01C0E5FF02C0E5FFF1
:1018800003C0E5FF04C0E5FF05C0E5FF06C0E5FFB6
:1018900007C0E5FF020EDBCF37FA030EDBCF38FAC5
:1018A000040EDBCF39FA050EDBCF3AFA060EDBCF9A
:1018B00000F0070EDBCF01F0026A036A0A0138AFBD
:1018C00013D0010E026EE3CE04F0056A0450076ED9
:1018D000066AE2CE04F0056A045006100A01376F6A
:1018E000055007100A01386F0A013AAF13D0010EF4
:1018F000036E7BCF04F0056A0450076E066A7ACF48
:1019000004F0056A045006100A01396F05500710EB
:101910000A013A6F000E015C02E1020E005CD8B0D1
:101920007CD07BCF04F0056A0450076E066A7ACF3C
:1019300004F0056A045006120550071206500A0109
:101940003B6F07500A013C6FE3CE04F0056A045078
:10195000076E066AE2CE04F0056A045006120550CE
:10196000071206500A013D6F07500A013E6F0A0137
:101970003951046E056A04507A6E0A013A51046EB8
:10198000056A056A04507B6E0A013751046E056AC8
:1019900004500E01E26F0A013851046E056A056AAF
:1019A00004500E01E36F00C004F001C005F004C054
:1019B00006F005C007F0FF0E0426D8A00506065065
:1019C000071009E0FDEC3CF0066E0650E56EDFEC1A
:1019D0003CF0E12AECD703500DE10A013B51046EC3
:1019E000056A04507A6E0A013C51046E056A056A64
:1019F00004507B6E0250D8A4D5D00A013D51046E2C
:101A0000056A04500E01E26F0A013E51046E056A38
:101A1000056A04500E01E36FC5D0025023E0005068
:101A20000A013725026E01500A013821046E025066
:101A30000A013D6F04500A013E6F3DCAE8FF3ECAED
:101A4000E8FF0250056E066A05500E01E26F3DCABE
:101A5000E8FF3ECAE8FF0450026E046A046A0250BE
:101A60000E01E36F0A013951FF0F026EFF0E0A01EA
:101A70003A21046E0250002604500122D2BAFED749
:101A80000A013951026E046A02500E01F06F0A0118
:101A90003A51026E046A046A02500E01F16F0A01A3
:101AA0003751026E046A02500E01F46F0A01385178
:101AB000026E046A046A02500E01F56F39CA02F020
:101AC0003ACA04F0056A066A000E065C08E1000ED8
:101AD000055C05E11A0E045C02E10A0E025C026A72
:101AE000023602501EE100C004F001C005F0066A93
:101AF000076A000E075C08E1000E065C05E11A0E9D
:101B0000055C02E10A0E045C0CE3F60E0426E50E09
:101B10000522FF0E0622FF0E07220450006E05501C
:101B2000016E0050046E056A04500E01F26F015000
:101B3000046E056A056A04500E01F36FD298D28ACA
:101B4000D2BAFED703502EE0002AD8B0012A0250A4
:101B50001EE100C002F001C003F0046A056A000E35
:101B6000055C08E1000E045C05E11A0E035C02E16D
:101B70000A0E025C0CE3F60E0226E50E0322FF0EAF
:101B80000422FF0E05220250006E0350016E005029
:101B9000026E036A02507A6E0150006E016A016A99
:101BA00000507B6EE4CF07F0E4CF06F0E4CF05F001
:101BB000E4CF04F0E4CF03F0E4CF02F0E4CF01F08F
:101BC000E4CF00F0E4CFD9FF1200D9CFE5FFE1CF99
:101BD000D9FF00C0E5FF01C0E5FF02C0E5FF03C07B
:101BE000E5FF04C0E5FF05C0E5FF06C0E5FF07C04F
:101BF000E5FF08C0E5FF09C0E5FF0AC0E5FF0BC02F
:101C0000E5FF0CC0E5FF0DC0E5FF0E012CAD47D090
:101C1000E4EC3AF0006E00500801441901E133D0C1
:101C200000C044F800502FE114CE00F015CE01F0B2
:101C300016CE02F017CE03F000500E01006F0150D7
:101C40000E01016F02500E01026F03500E01036F6F
:101C500018CE00F019CE01F01ACE02F01BCE03F020
:101C600000500E01046F01500E01056F02500E016D
:101C7000066F03500E01076F0E012C8F000EE56EEC
:101C80007EEC36F0E12A83EC03F0000EE56E52ECB8
:101C90003CF0006EE12A005002E00E012C9FE9ECBE
:101CA0003CF0F8EC3BF0080E016EB00E006E800EBA
:101CB000026E0A0E046E630E036E800E056E0550F2
:101CC000E56E0450E56E0350E56E0250E56E01507E
:101CD000E56E0050E56E02EC1EF0006E060EE12689
:101CE0000050D8B4EAD063CA00F0016A005002E1A3
:101CF000015009E00050060A02E1015001E0D1D78D
:101D0000F9EC16F0CED7080E016EFA0E006E800EBA
:101D1000026E080E046EAC0E036E800E056E0A0E87
:101D2000076E640E066E800E086E0A0E0A6E4D0E69
:101D3000096E800E0B6E0B50E56E0A50E56E095071
:101D4000E56E0850E56E0750E56E0650E56E0550ED
:101D5000E56E0450E56E0350E56E0250E56E0150ED
:101D6000E56E0050E56ECDEC1BF0006E0C0EE1262A
:101D70000050D8B496D764CA00F0016A0050010A36
:101D800002E1015001E06DD0FAC802F0FBC803F097
:101D9000FCC804F0FDC805F000CE06F001CE07F047
:101DA00002CE08F003CE09F0025006180AE10350F3
:101DB000071807E10450081804E10550091801E16B
:101DC00039D00250FF0A09E10350FF0A06E104502E
:101DD000FF0A03E10550FF0A2DE00E01045106162B
:101DE0000E01055107160E01065108160E01075186
:101DF00009160E01041D0A6E0E01051D0B6E0E0163
:101E0000061D0C6E0E01071D0D6E0A5006120B50BA
:101E100007120C5008120D5009120250061809E161
:101E20000350071806E10450081803E1055009188B
:101E300001E037D7080E036EAC0E026E800E046E02
:101E40000A014E51E56E0A014D51E56E0450E56EF2
:101E50000350E56E0250E56EBEEC23F0050EE12660
:101E600020D70050110A02E1015001E01AD7080EF4
:101E7000016EAC0E006E800E026E080E046EFA0E3D
:101E8000036E800E056E0A014E51E56E0A014D513A
:101E9000E56E0550E56E0450E56E0350E56E0250A8
:101EA000E56E0150E56E0050E56EA0EC12F0006E9C
:101EB000080EE1260050D8B4F4D6E4CF0DF0E4CFFC
:101EC0000CF0E4CF0BF0E4CF0AF0E4CF09F0E4CF5C
:101ED00008F0E4CF07F0E4CF06F0E4CF05F0E4CF5C
:101EE00004F0E4CF03F0E4CF02F0E4CF01F0E4CF5C
:101EF00000F0E4CFD9FF1200D9CFE5FFE1CFD9FF41
:101F000000C0E5FF01C0E5FF02C0E5FF03C0E5FF3B
:101F100004C0E5FF05C0E5FF06C0E5FF07C0E5FF1B
:101F200008C0E5FF020EDBCF00F0030EDBCF01F0AF
:101F3000040EDBCF02F0050EDBCF49FA060EDBCF35
:101F40004AFA0801EE6B0801EF6B0801F06B08011B
:101F5000F16B0801EE6B0801EF6B0801F06B0801F3
:101F6000F16B0801EE6B0801EF6B0801F06B0801E3
:101F7000F16B0801EE6B0801EF6B0801F06B0801D3
:101F8000F16B0801EE6B0801EF6B0801F06B0801C3
:101F9000F16B0801EE6B0801EF6B0801EE6B0801B5
:101FA000EF6B0801EE6B0801EF6B0801EE91080181
:101FB000EE930801EE950801EE970801EE990801ED
:101FC000EE9B0801EE9D0801EE9F0801EF910801CC
:101FD000EF930801EF950801EF970801EF990801C9
:101FE000EF9B0801EF9D0801EF9F0801F06B0801CE
:101FF000F16B0801F06B0801F16B0801F06B08014F
:10200000F16B0801F0910801F0930801F0950801C7
:10201000F0970801F0990801F09B0801F09D080174
:10202000F09F0801F1910801F1930801F195080171
:10203000F1970801F1990801F19B0801F19D080150
:10204000F19F0801EE910801EE930801EE95080159
:10205000EE970801EE990801EE9B0801EE9D08013C
:10206000EE9F0801EF910801EF930801EF95080139
:10207000EF970801EF990801EF9B0801EF9D080118
:10208000EF9F0801F0910801F0930801F095080115
:10209000F0970801F0990801F09B0801F09D0801F4
:1020A000F09F0801F1910801F1930801F1950801F1
:1020B000F1970801F1990801F19B0801F19D0801D0
:1020C000F19FD8900A014A31046E0A014931036E2A
:1020D00003C005F004C006F0FF0E0326D8A00406D6
:1020E000055006102BE000C0E9FF01C0F3FF0250CD
:1020F000B8EC3BF0056EF3CF06F0020E0026000EA2
:102100000122000E0222076A086A0801EE51052624
:102110000801EF5106220801F05107220801F15190
:10212000082205500801EE6F06500801EF6F0750B6
:102130000801F06F08500801F16FCAD70A0149A1E0
:1021400023D000C0E9FF01C0F3FF025031EC3CF0A6
:10215000006E016A026A036A0801EE510026080156
:10216000EF5101220801F05102220801F15103222E
:1021700000500801EE6F01500801EF6F0250080196
:10218000F06F03500801F16FEEC800F0EFC801F0E6
:10219000026A036AF0C804F0F1C805F0066A076A2B
:1021A0000450002605500122065002220750032247
:1021B00000500801EE6F01500801EF6F0250080156
:1021C000F06F03500801F16F0801F0510801EE258E
:1021D000006E0801F1510801EF21016E0050080165
:1021E000EE6F01500801EF6F0801EE1D006E08014F
:1021F000EF1D016E01C0F3FF0050E4CF08F0E4CF03
:1022000007F0E4CF06F0E4CF05F0E4CF04F0E4CF2C
:1022100003F0E4CF02F0E4CF01F0E4CF00F0E4CF2C
:10222000D9FF1200D9CFE5FFE1CFD9FF00C0E5FF0C
:1022300001C0E5FF02C0E5FF03C0E5FF04C0E5FF04
:1022400005C0E5FF06C0E5FF07C0E5FF08C0E5FFE4
:1022500009C0E5FF0AC0E5FF0BC0E5FF0CC0E5FFC4
:102260000DC0E5FF020EDBCF00F0030EDBCF01F067
:10227000040EDBCF02F0050EDBCF03F0060EDBCF42
:1022800004F0070EDBCF05F0066A076A0801E66B6B
:102290000801E76B0801E86B0801E96B00C0E9FF82
:1022A00001C0F3FF025031EC3CF0086E002AD8B0B8
:1022B000012AD8B0022A08C009F00850D8B4D0D0FA
:1022C00007C008F00A6A000E0A5C02E1040E085C0E
:1022D000D8B0C6D0D00E092606500CE109C008F0CF
:1022E0000A6A000E0A5C02E10A0E085CD8A09DD0C2
:1022F000E86A07D106C008F00A6A0850030A02E13A
:102300000A5001E044D00950FE0A02E0E86AF9D020
:10231000000E0801E95D0BE1020E0801E85D07E12E
:10232000050E0801E75D03E1060E0801E65D02E324
:10233000E86AE7D007C008F0072A0A6A0B6A035068
:10234000082604500A2205500B220801E851640DAA
:10235000F3CF0CF00801E7510A0DF3CF0DF00D504B
:102360000C260801E6510C260CC0E5FF08C0E9FF69
:102370000AC0F3FF0B50F3EC3CF0066A0801E66B71
:102380000801E76B0801E86B0801E96B87D7095082
:10239000FE0A01E03FD0000E0801E95D0BE1020EEC
:1023A0000801E85D07E1050E0801E75D03E1060E9F
:1023B0000801E65D02E3E86AA4D007C008F0072A36
:1023C0000A6A0B6A0350082604500A2205500B22A1
:1023D0000801E851640DF3CF0CF00801E7510A0D34
:1023E000F3CF0DF00D500C260801E6510C260CC061
:1023F000E5FF08C0E9FF0AC0F3FF0B50F3EC3CF027
:10240000066A0801E66B0801E76B0801E86B080142
:10241000E96B44D709C008F00A6A000E0A5C02E1C1
:102420000A0E085C02E3E86A6CD0062A0801E8514B
:102430000C6E0801E7510B6E0801E6510A6E086A3E
:1024400008500801E66F0A500801E76F0B500801B9
:10245000E86F0C500801E96F09500801E66F1ED7BC
:1024600009501EE009C000F0016A00502F0A02E185
:10247000015016E000500D0A02E1015011E0005039
:102480000A0A02E101500CE00050200A02E101506A
:1024900007E00050090A02E1015002E0E86A31D089
:1024A000000E0801E95D0BE1020E0801E85D07E19D
:1024B000050E0801E75D03E1060E0801E65D02E393
:1024C000E86A1FD0030E0326000E0422000E052228
:1024D0000801E851640DF3CF00F00801E7510A0D3F
:1024E000F3CF01F0015000260801E651002600C09C
:1024F000E5FF03C0E9FF04C0F3FF0550F3EC3CF037
:10250000010EE4CF0DF0E4CF0CF0E4CF0BF0E4CFFC
:102510000AF0E4CF09F0E4CF08F0E4CF07F0E4CF0D
:1025200006F0E4CF05F0E4CF04F0E4CF03F0E4CF0D
:1025300002F0E4CF01F0E4CF00F0E4CFD9FF1200C5
:10254000D9CFE5FFE1CFD9FF00C0E5FF01C0E5FF2E
:1025500002C0E5FF03C0E5FF04C0E5FF05C0E5FFDD
:1025600006C0E5FF07C0E5FF08C0E5FF09C0E5FFBD
:102570000AC0E5FF0BC0E5FF020EDBCF00F0030E43
:10258000DBCF01F0040EDBCF02F0050EDBCF03F052
:10259000060EDBCF04F0070EDBCF05F0080EDBCF15
:1025A00006F0090EDBCF07F00A01596B0A015A6BDE
:1025B000080E096EC60E086E800E0A6E000EE56EDD
:1025C000080EE56E0A50E56E0950E56E0850E56E9E
:1025D000D1EC2FF0050EE1260801C751E56E080188
:1025E000C651E56EB1EC39F0086EF3CF09F0020E7A
:1025F000E12608500801C66F09500801C76F08019D
:10260000C951E56E0801C851E56EB1EC39F0086EAC
:10261000F3CF09F0020EE12608500801C86F0950F7
:102620000801C96F0801CB51E56E0801CA51E56E7A
:10263000B1EC39F0086EF3CF09F0020EE126F80E86
:102640000826D8A0090608500801CA6F09500801D9
:10265000CB6F0801CC510801CD11D8B496D000C081
:10266000E9FF01C0F3FF025048EC3BF0086EF3CFE6
:1026700009F0F4CF0AF0E9CF0BF0085008018C6F95
:10268000095008018D6F0A5008018E6F0B50080128
:102690008F6F03C0E9FF04C0F3FF055048EC3BF027
:1026A000086EF3CF09F0F4CF0AF0E9CF0BF0085031
:1026B0000801906F09500801916F0A500801926F4C
:1026C0000B500801936F0801946B110E0801956F70
:1026D00006500801966F07500801976F0750E56E86
:1026E0000650E56EB1EC39F0086EF3CF09F0020E3A
:1026F000E12608500801966F09500801976F080EEF
:10270000096E8C0E086E800E0A6E000EE56E0C0EC1
:10271000E56E0A50E56E0950E56E0850E56E7CECFA
:102720000FF0086EF3CF09F0050EE126081E091E12
:1027300008500A01086F09500A01096F000EE56E82
:10274000000EE56E30EC39F0020EE1260750E56E22
:102750000650E56EF8EC06F0066EF3CF07F0020EB9
:10276000E12606500A010A6F07500A010B6F0A01A1
:1027700008510A010A1905E10A0109510A010B1958
:1027800004E0D7EC34F0E86A35D0080E076EC60EC8
:10279000066E800E086E0550E56E0450E56E03501F
:1027A000E56E0250E56E0150E56E0050E56E085092
:1027B000E56E0750E56E0650E56ECBEC08F0006E56
:1027C000090EE12600C001F0026A0150FF0A02E191
:1027D000025001E004D0D7EC34F0E86A0BD000C01E
:1027E0004AF8CAC859FACBC85AFA0A0165810A01DF
:1027F0006593010EE4CF0BF0E4CF0AF0E4CF09F0CB
:10280000E4CF08F0E4CF07F0E4CF06F0E4CF05F022
:10281000E4CF04F0E4CF03F0E4CF02F0E4CF01F022
:10282000E4CF00F0E4CFD9FF1200D9CFE5FFE1CF2C
:10283000D9FF00C0E5FF01C0E5FF02C0E5FF03C00E
:10284000E5FF04C0E5FF05C0E5FF06C0E5FF07C0E2
:10285000E5FF08C0E5FF0A0166510E0DF3CF00F059
:10286000016A600E0026000E01220150016E005028
:10287000006E800E026E0A015551080F036E000EA5
:102880000A015621046E00500C0F056E000E012047
:10289000066E000E0220076E05C0E9FF06C0F3FFBA
:1028A0000750B8EC3BF0056EF3CF06F00650E56E2E
:1028B0000550E56EB1EC39F0056EF3CF06F0020E6F
:1028C000E12605500801BE6F06500801BF6F005099
:1028D0000A0F056E000E0120066E000E0220076E24
:1028E00005C0E9FF06C0F3FF0750B8EC3BF0056EEA
:1028F000F3CF06F00650E56E0550E56EB1EC39F009
:10290000056EF3CF06F0020EE12605500801C06FF8
:1029100006500801C16F0450E56E0350E56EB1EC3E
:1029200039F0056EF3CF06F0020EE12605500801DE
:10293000C26F06500801C36F0801C46B0801C56B64
:102940000E0100510E01706F0E0101510E01716FE9
:102950000E0102510E01726F0E0103510E01736FD1
:1029600000C0E9FF01C0F3FF025048EC3BF0056EE8
:10297000F3CF06F0F4CF07F0E9CF08F005500E01D1
:10298000746F06500E01756F07500E01766F085078
:102990000E01776F0E01786B110E0E01796F0350E7
:1029A0000E017A6F04500E017B6F0450E56E0350E8
:1029B000E56EB1EC39F0056EF3CF06F0020EE126BC
:1029C00005500E017A6F06500E017B6F0E0E066EDB
:1029D000700E056E800E076E000EE56E0C0EE56E35
:1029E0000750E56E0650E56E0550E56E7CEC0FF085
:1029F000056EF3CF06F0050EE126051E061E0550F6
:102A00000801C46F06500801C56F1A0EE56E190E55
:102A1000E56EC0EC36F0020EE1260450E56E035080
:102A2000E56E110EE56E0250E56E0150E56E005048
:102A3000E56E0AEC21F0060EE126080E016EBE0ED0
:102A4000006E800E026E000EE56E080EE56E0250FE
:102A5000E56E0150E56E0050E56E41EC34F0050E78
:102A6000E1261A0EE56E2D0EE56E02EC37F0006ED3
:102A7000F3CF01F0020EE1260450E56E0350E56E3F
:102A8000F8EC06F00A01576FF3CF58FA020EE12670
:102A90000150E56E0050E56E02EC37F0020EE126C3
:102AA0001A0EE56E330EE56EC0EC36F0020EE1262E
:102AB0000A0E016E570E006E800E026E000EE56E5D
:102AC000020EE56E0250E56E0150E56E0050E56EB7
:102AD00041EC34F0050EE1266CEC38F00A01556B40
:102AE0000A01566BFF0E0801496FE4CF08F0E4CFEE
:102AF00007F0E4CF06F0E4CF05F0E4CF04F0E4CF34
:102B000003F0E4CF02F0E4CF01F0E4CF00F0E4CF33
:102B1000D9FF1200D9CFE5FFE1CFD9FF00C0E5FF13
:102B200001C0E5FF02C0E5FF03C0E5FF04C0E5FF0B
:102B300005C0E5FF06C0E5FF07C0E5FF08C0E5FFEB
:102B400009C0E5FF0AC0E5FF0BC0E5FF0CC0E5FFCB
:102B50000DC0E5FF0EC0E5FF0FC0E5FF10C0E5FFAB
:102B600011C0E5FF12C0E5FF13C0E5FF14C0E5FF8B
:102B700015C0E5FF16C0E5FF17C0E5FF18C0E5FF6B
:102B800019C0E5FF1AC0E5FF1BC0E5FF1CC0E5FF4B
:102B90001DC0E5FFC2CF00F0C0CF01F0D5CF02F0DD
:102BA000D6CF03F0D7CF04F0010EC26E3F0EC06E39
:102BB000880ED56E056A066A076A086A096A0A6A93
:102BC00003EC3AF00B6EF3CF0CF0F4CF0DF0E9CF3D
:102BD0000EF00F6AD76AD66AC2820400C2B2FED76C
:102BE000D6500A01436FD7500A01446F03EC3AF004
:102BF000106EF3CF11F0F4CF12F0E9CF13F043CA07
:102C000012F044CA13F0146A156A125005261350C4
:102C100006221450072215500822000E085C08E115
:102C20009E0E075C05E1F20E065C02E11A0E055CE1
:102C3000D8A048D003EC3AF0126EF3CF13F0F4CFE3
:102C400014F0E9CF15F003EC3AF0166EF3CF17F05D
:102C5000F4CF18F0E9CF19F0183017301D6E1C6A48
:102C60001C321640800B1B6E1650E8407F0B1C1266
:102C70001A6A1A5012121B5013121C5014121D50B3
:102C8000151203EC3AF0166EF3CF17F0F4CF18F0EC
:102C9000E9CF19F01640E840C00B1D6E1A6A1B6A96
:102CA0001C6A1A5012121B5013121C5014121D5081
:102CB000151212500B1A13500C1A14500D1A1550ED
:102CC0000E1A47D009500A01431905E10A500A01BA
:102CD000441901E17FD70A014351095C126E0A01D0
:102CE00044510A58136E1250102613501122126AC2
:102CF000136A1350E56E1250E56E1150E56E1050D8
:102D0000E56E0DEC3CF0040EE12643CA09F044CA1E
:102D10000AF00B500B260C360D360E3603EC3AF04B
:102D2000106EF3CF11F0F4CF12F0E9CF13F013507F
:102D3000800F800F08E1000E125C05E1400E115C6F
:102D400002E1000E105C01E30B800F2A0F50D8A4A3
:102D500041D700C0C2FF01C0C0FF04C0D7FF03C0FD
:102D6000D6FF02C0D5FF0EC0E9FF0DC0F4FF0CC0B6
:102D7000F3FF0B50E4CF1DF0E4CF1CF0E4CF1BF0C9
:102D8000E4CF1AF0E4CF19F0E4CF18F0E4CF17F055
:102D9000E4CF16F0E4CF15F0E4CF14F0E4CF13F055
:102DA000E4CF12F0E4CF11F0E4CF10F0E4CF0FF055
:102DB000E4CF0EF0E4CF0DF0E4CF0CF0E4CF0BF055
:102DC000E4CF0AF0E4CF09F0E4CF08F0E4CF07F055
:102DD000E4CF06F0E4CF05F0E4CF04F0E4CF03F055
:102DE000E4CF02F0E4CF01F0E4CF00F0E4CFD9FF6C
:102DF0001200D9CFE5FFE1CFD9FF00C0E5FF01C048
:102E0000E5FF02C0E5FF03C0E5FF04C0E5FF05C024
:102E1000E5FF06C0E5FF07C0E5FF0801405106E0F9
:102E200008014051010A01E1C4D00FD10E0E016E1C
:102E3000540E006E800E026E000EE56E1C0EE56EE6
:102E40000250E56E0150E56E0050E56ED1EC2FF0BA
:102E5000050EE126D7EC34F00E0E016E540E006E16
:102E6000800E026E0250E56E0150E56E0050E56E78
:102E7000CFEC27F0030EE1260E015451010A03E1C5
:102E80000E01555101E008D00E015851060A04E127
:102E90000E015951040A02E0010ED8D05ACE00F0BA
:102EA0005BCE01F00050020A02E1015001E032D095
:102EB000080E036E9C0E026E800E046E0E0E066EE1
:102EC0005C0E056E800E076E000EE56E060EE56E5A
:102ED0000750E56E0650E56E0550E56E0450E56E50
:102EE0000350E56E0250E56E71EC2DF0080EE12600
:102EF0000E0162510801986F0E0163510801996F2C
:102F00000E01645108019A6F0E01655108019B6F13
:102F1000010E9CD00050010A02E1015001E049D0AD
:102F20000E016C510E0100190FE10E016D510E01E1
:102F300001190AE10E016E510E01021905E10E019F
:102F40006F510E01031902E0010E80D00E01625193
:102F50000801A26F0E0163510801A36F0E016451B5
:102F60000801A46F0E0165510801A56F080E016EDE
:102F7000A60E006E800E026E0E0E046E5C0E036EC8
:102F8000800E056E000EE56E060EE56E0550E56ED0
:102F90000450E56E0350E56E0250E56E0150E56E9B
:102FA0000050E56E71EC2DF0080EE126010E0801CF
:102FB000406F020E0E015A6F0E015B6B0E0E016E1A
:102FC000660E006E800E026E080E046EA60E036E74
:102FD000800E056E000EE56E060EE56E0550E56E80
:102FE0000450E56E0350E56E0250E56E0150E56E4B
:102FF0000050E56E71EC2DF0080EE1260801A2519B
:103000000E016C6F0801A3510E016D6F0801A451F0
:103010000E016E6F0801A5510E016F6F0E0E016E4D
:10302000540E006E800E026E0250E56E0150E56E89
:103030000050E56E0BEC20F0006E030EE126005010
:1030400002E1E86A03D00801406B010EE4CF07F00B
:10305000E4CF06F0E4CF05F0E4CF04F0E4CF03F0D2
:10306000E4CF02F0E4CF01F0E4CF00F0E4CFD9FFE9
:103070001200D9CFE5FFE1CFD9FF00C0E5FF01C0C5
:10308000E5FF02C0E5FF03C0E5FF04C0E5FF05C0A2
:10309000E5FF06C0E5FF07C0E5FF08C0E5FF020E3B
:1030A000E56E000EE56ED0EC38F0020EE126480E1B
:1030B000006E0D0E016E026A036A00C004F001C0CA
:1030C00005F002C006F003C007F0FF0E0026FF0E59
:1030D0000122FF0E0222FF0E0322045005100610EB
:1030E0000710EBE1006A00C001F0026A000E025C0A
:1030F00002E1100E015CD8B057D0330E0024016EEF
:10310000026A0E0E022201C0E9FF02C0EAFFEFCF01
:1031100001F0015019E100C001F001C002F0036AA2
:10312000000E035C02E1100E025C0EE2330E01247D
:10313000026E036A0E0E032202C0E9FF03C0EAFF1B
:10314000200EEF6E012AE9D7330E0024016E026AC9
:103150000E0E022201C0E9FF02C0EAFFEFCF01F02C
:103160000150E56E010EE56ED0EC38F0020EE1265E
:10317000550E016E026A036A046A01C005F002C0BE
:1031800006F003C007F004C008F0FF0E0126FF0E92
:103190000222FF0E0322FF0E042205500610071024
:1031A0000810EBE1002A9FD7C00EE56E000EE56E19
:1031B000D0EC38F0020EE126550E006E016A026A6C
:1031C000036A00C004F001C005F002C006F003C0AD
:1031D00007F0FF0E0026FF0E0122FF0E0222FF0E57
:1031E00003220450051006100710EBE1100E006ECC
:1031F00000C001F0026A000E025C02E1200E015CD8
:10320000D8B057D0330E0024016E026A0E0E02228F
:1032100001C0E9FF02C0EAFFEFCF01F0015019E160
:1032200000C001F001C002F0036A000E035C02E17D
:10323000200E025C0EE2330E0124026E036A0E0EB3
:10324000032202C0E9FF03C0EAFF200EEF6E012A4D
:10325000E9D7330E0024016E026A0E0E022201C06D
:10326000E9FF02C0EAFFEFCF01F00150E56E010E69
:10327000E56ED0EC38F0020EE126550E016E026AC2
:10328000036A046A01C005F002C006F003C007F03B
:1032900004C008F0FF0E0126FF0E0222FF0E0322DB
:1032A000FF0E04220550061007100810EBE1002A5B
:1032B0009FD7E4CF08F0E4CF07F0E4CF06F0E4CFE7
:1032C00005F0E4CF04F0E4CF03F0E4CF02F0E4CF64
:1032D00001F0E4CF00F0E4CFD9FF1200D9CFE5FF31
:1032E000E1CFD9FF00C0E5FF01C0E5FF02C0E5FF67
:1032F00003C0E5FF04C0E5FF05C0E5FF06C0E5FF2C
:1033000007C0E5FF08C0E5FF09C0E5FF0AC0E5FF0B
:103310000BC0E5FF0CC0E5FF0DC0E5FF0EC0E5FFEB
:103320000FC0E5FF10C0E5FF11C0E5FF12C0E5FFCB
:1033300013C0E5FF020EDBCF00F0030EDBCF01F080
:10334000040EDBCF02F0050EDBCF03F0060EDBCF61
:1033500004F0070EDBCF05F0080EDBCF06F0000E01
:10336000086E600E076E800E096E0A6A07C00BF0C9
:1033700008C00CF009C00DF00E6A0EC00FF0106A04
:10338000000E105C02E10A0E0F5CD8B0ACD00B50FE
:103390000C0F0F6E000E0C20106E000E0D20116E23
:1033A0000FC0E9FF10C0F3FF1150B8EC3BF0126EF4
:1033B000F3CF13F012501310D8A485D000C0E5FF4E
:1033C00001C0F4FF0FC0E9FF10C0F3FF1150D3ECB0
:1033D0003CF00050011032E1200E0A01545D03E17F
:1033E000010E0A01535D08E2100E0A01545D03E16B
:1033F000000E0A01535D05E20A01536B100E0A012B
:10340000546F07500C0F0F6E000E0820106E000E48
:103410000920116E53CA12F054CA13F00A01532B3B
:1034200002E30A01542B12C0E5FF13C0F4FF0FC0E2
:10343000E9FF10C0F3FF1150D3EC3CF00250031031
:10344000041015E0000EE56E0A0EE56E0450E56E00
:103450000350E56E0250E56E0950E56E0850E56ECA
:103460000750E56E71EC2DF0080EE12614D007C070
:103470000FF008C010F009C011F0000EE56E0A0E42
:10348000E56EFF0EE56E1050E56E0F50E56E8CECAC
:1034900031F0050EE12607500A0F0F6E000E0820CE
:1034A000106E000E0920116E05C0E5FF06C0F4FF86
:1034B0000FC0E9FF10C0F3FF1150D3EC3CF00AC07D
:1034C00066FA0A5011D00E0E0B26000E0C22000ECA
:1034D0000D220BC007F00CC008F00DC009F00E2A39
:1034E0000EC00AF04AD7E868E4CF13F0E4CF12F038
:1034F000E4CF11F0E4CF10F0E4CF0FF0E4CF0EF002
:10350000E4CF0DF0E4CF0CF0E4CF0BF0E4CF0AF001
:10351000E4CF09F0E4CF08F0E4CF07F0E4CF06F001
:10352000E4CF05F0E4CF04F0E4CF03F0E4CF02F001
:10353000E4CF01F0E4CF00F0E4CFD9FF1200D9CFFF
:10354000E5FFE1CFD9FF00C0E5FF01C0E5FF02C004
:10355000E5FF03C0E5FF04C0E5FF05C0E5FF06C0C9
:10356000E5FF07C0E5FF08C0E5FF000EE56E200E91
:10357000E56E200EE56E0E0EE56E330EE56E8CECFC
:1035800031F0050EE1260E01536B90909092966AF1
:10359000999299949990A00E006E090E016E010EF9
:1035A000026E036A00C004F001C005F002C006F01C
:1035B00003C007F0FF0E0026FF0E0122FF0E0222BD
:1035C000FF0E03220450051006100710EBE1909443
:1035D000030E8D6E00000000006A00C001F0026A58
:1035E000000E025C02E1030E015C39E29080110ED4
:1035F000016E026A036A046A01C005F002C006F0A7
:1036000003C007F004C008F0FF0E0126FF0E0222DF
:10361000FF0E0322FF0E04220550061007100810AB
:10362000EBE19090480E016E0D0E026E036A046A83
:1036300001C005F002C006F003C007F004C008F0A6
:10364000FF0E0126FF0E0222FF0E0322FF0E0422B0
:103650000550061007100810EBE1002ABED7380EFF
:10366000E56E000EE56ED0EC38F0020EE126550E48
:10367000006E016A026A036A00C004F001C005F02E
:1036800002C006F003C007F0FF0E0026FF0E012265
:10369000FF0E0222FF0E0322045005100610071031
:1036A000EBE1060EE56E000EE56ED0EC38F0020E92
:1036B000E126550E006E016A026A036A00C004F03A
:1036C00001C005F002C006F003C007F0FF0E00269F
:1036D000FF0E0122FF0E0222FF0E032204500510EE
:1036E00006100710EBE10C0EE56E000EE56ED0EC57
:1036F00038F0020EE126550E006E016A026A036A76
:1037000000C004F001C005F002C006F003C007F0DD
:10371000FF0E0026FF0E0122FF0E0222FF0E0322E3
:103720000450051006100710EBE1010EE56E000EC7
:10373000E56ED0EC38F0020EE126480E006E0D0E5C
:10374000016E026A036A00C004F001C005F002C005
:1037500006F003C007F0FF0E0026FF0E0122FF0E49
:103760000222FF0E03220450051006100710EBE1A1
:10377000E4CF08F0E4CF07F0E4CF06F0E4CF05F0A3
:10378000E4CF04F0E4CF03F0E4CF02F0E4CF01F0A3
:10379000E4CF00F0E4CFD9FF1200D9CFE5FFE1CFAD
:1037A000D9FF00C0E5FF01C0E5FF02C0E5FF03C08F
:1037B000E5FF04C0E5FF05C0E5FF06C0E5FF07C063
:1037C000E5FF08C0E5FF09C0E5FF0AC0E5FF0BC043
:1037D000E5FF0CC0E5FF0DC0E5FF0EC0E5FF0FC023
:1037E000E5FF020EDBCF00F0030EDBCF01F0040E8D
:1037F000DBCF02F0050EDBCF03F0060EDBCF04F0CB
:10380000070EDBCF05F0080EDBCF06F0090EDBCF8D
:1038100007F00A0EDBCF08F00B0EDBCF09F00C0E21
:10382000DBCF0AF00D0EDBCF0BF0080E0D6E640E31
:103830000C6E800E0E6E000EE56E140EE56E0E50D0
:10384000E56E0D50E56E0C50E56ED1EC2FF0050ED7
:10385000E126F00E080164150C6E0D6A0C50400A4A
:1038600002E10D5002E0E86AA0D008016A511F0B86
:1038700003E108016B5102E0E86A97D00F0E0801DE
:1038800064150C6E0C44E844FC0B0A01616F61CABC
:103890000CF00D6A0D50E56E0C50E56E000EE56EF5
:1038A000000EE56E2CEC2AF00C6EF3CF0DF0040E3A
:1038B000E1260C500A014B6F0D500A014C6F61CA92
:1038C0000CF00D6A0D50E56E0C50E56E55EC32F0C3
:1038D000020EE1260A014B510A014C1102E0E86A8E
:1038E00064D0080E0D6E640E0C6E800E0E6E0E50BF
:1038F000E56E0D50E56E0C50E56E40EC25F0030EC4
:10390000E12600500110021017E074C80CF075C8D1
:103910000DF076C80EF077C80FF00CC0E5FF0DC0B3
:10392000F4FF0EC0F6FF0FC0F7FF00C0E9FF01C0B3
:10393000F3FF025062EC3CF070C800F071C801F077
:1039400072C802F073C80CF000C0E5FF01C0F4FFBC
:1039500002C0F6FF0CC0F7FF03C0E9FF04C0F3FF8D
:10396000055062EC3CF06DC800F000C0E5FF06C0F9
:10397000E9FF07C0F3FF0850F3EC3CF061CA00F028
:10398000016A00500801665D006E01500801675928
:10399000016E00C0E5FF01C0F4FF09C0E9FF0AC0E5
:1039A000F3FF0B50D3EC3CF0010EE4CF0FF0E4CF6B
:1039B0000EF0E4CF0DF0E4CF0CF0E4CF0BF0E4CF49
:1039C0000AF0E4CF09F0E4CF08F0E4CF07F0E4CF49
:1039D00006F0E4CF05F0E4CF04F0E4CF03F0E4CF49
:1039E00002F0E4CF01F0E4CF00F0E4CFD9FF120001
:1039F000D9CFE5FFE1CFD9FF00C0E5FF01C0E5FF6A
:103A000002C0E5FF03C0E5FF04C0E5FF05C0E5FF18
:103A100006C0E5FF07C0E5FF020EDBCF00F0030E96
:103A2000DBCF01F0040EDBCF02F0050EDBCF03F09D
:103A3000060EDBCF04F0070EDBCF05F0080EDBCF60
:103A400006F0090EDBCF07F000500A01106F01509D
:103A5000116F0250126F0350136F04500A01146F5C
:103A60000550156F0650166F0750176F0A01105159
:103A70000A011603F3CF00F0F4CF01F000500A0161
:103A80001A6F01501B6F0A0110510A011403F3CF82
:103A900000F0F4CF01F000500A01186F0150196FC7
:103AA0000A0113510A011403F3CF00F00A011B515C
:103AB000002600501B6F0A0112510A011503F3CFB3
:103AC00000F00A011B51002600501B6F0A01125121
:103AD0000A011403F3CF00F0F4CF01F00A011A51E8
:103AE00000261B51012200501A6F01501B6F0A0162
:103AF00011510A011503F3CF00F0F4CF01F00A01D0
:103B00001A5100261B51012200501A6F01501B6FE1
:103B10000A0111510A011603F3CF00F000500A0107
:103B20001F6F0A0111510A011403F3CF00F0F4CF03
:103B300001F000500A011D6F01501E6F0A01105163
:103B40000A011703F3CF00F000500A01236F0A01A6
:103B500010510A011503F3CF00F0F4CF01F000502B
:103B60000A01216F0150226F0A011C6B0A01206BB0
:103B70000A011C510A011825006E0A011D510A0193
:103B80001921016E0A011E510A011A21026E0A0151
:103B90001F510A011B21036E0050186F0150196F4D
:103BA00002501A6F03501B6F0A0120510A01182599
:103BB000006E0A0121510A011921016E0A012251E8
:103BC0000A011A21026E0A0123510A011B21036E08
:103BD00003C0E9FF02C0F4FF01C0F3FF0050E4CFCF
:103BE00007F0E4CF06F0E4CF05F0E4CF04F0E4CF33
:103BF00003F0E4CF02F0E4CF01F0E4CF00F0E4CF33
:103C0000D9FF1200D9CFE5FFE1CFD9FF00C0E5FF12
:103C100001C0E5FF02C0E5FF03C0E5FF04C0E5FF0A
:103C200005C0E5FF06C0E5FF07C0E5FF08C0E5FFEA
:103C300009C0E5FF020EDBCF00F0030EDBCF01F081
:103C4000040EDBCF02F0050EDBCF03F0060EDBCF58
:103C500004F0070EDBCF05F00E01D95102E1E86A4E
:103C6000C3D00A015E5104E1D7EC34F0E86ABCD05D
:103C70000801FE510A01276F0801FF510A01286F50
:103C80000A012851066E076A076A06507B6E0A0110
:103C90002751066E076A06507A6E000E076EEC0E0C
:103CA000066E800E086E000EE56E140EE56E08506E
:103CB000E56E0750E56E0650E56ED1EC2FF0050E6F
:103CC000E1260001FF51E56E0001FE51E56EB1EC09
:103CD00039F0066EF3CF07F0020EE1260650000120
:103CE000FE6F07500001FF6FECC006F0EDC007F05B
:103CF000086A096A000E095C08E1000E085C05E12B
:103D00001A0E075C02E10A0E065C14E20001ECB137
:103D100011D00001F1BF0ED00001F0B90BD0050E9B
:103D20000001EF5D03E1EF0E0001EE5D03E2000133
:103D3000F0BF0DD0000EE56E570EE56E940EE56EE9
:103D4000000EE56E21EC31F0040EE126FFD70001F4
:103D5000EC510801FE6F0001ED510801FF6F000EEC
:103D6000076EF80E066E800E086E000EE56E060EEB
:103D7000E56E0850E56E0750E56E0650E56E0250A0
:103D8000E56E0150E56E0050E56E71EC2DF0080E09
:103D9000E126FF0EE56E03C0E9FF04C0F3FF055006
:103DA000F3EC3CF0FFC000F0016A0050080A02E1A9
:103DB000015001E016D0FEC000F0005009E000C044
:103DC00001F0026A0150060A02E1025001E009D046
:103DD00000C0E5FF03C0E9FF04C0F3FF0550F3ECAA
:103DE0003CF00A015E6B010EE4CF09F0E4CF08F06D
:103DF000E4CF07F0E4CF06F0E4CF05F0E4CF04F021
:103E0000E4CF03F0E4CF02F0E4CF01F0E4CF00F020
:103E1000E4CFD9FF1200D9CFE5FFE1CFD9FF00C031
:103E2000E5FF01C0E5FF02C0E5FF03C0E5FF04C0F8
:103E3000E5FF05C0E5FF06C0E5FF07C0E5FF08C0D8
:103E4000E5FF09C0E5FF0AC0E5FF0BC0E5FF0CC0B8
:103E5000E5FF0DC0E5FF0EC0E5FF0FC0E5FF10C098
:103E6000E5FF11C0E5FF12C0E5FF13C0E5FF14C078
:103E7000E5FF15C0E5FF020EDBCF00F0030EDBCF40
:103E800001F0040EDBCF02F0050EDBCF03F0060ECF
:103E9000DBCF04F0070EDBCF05F0080EDBCF06F01A
:103EA000090EDBCF07F000C008F001C009F002C026
:103EB0000AF003C00BF004C00CF005C00DF006C002
:103EC0000EF007C00FF006500710D8B43ED003C064
:103ED00010F004C011F005C012F006C013F007C0C6
:103EE00014F0FF0E1326D8A01406135014101DE072
:103EF00010C0E9FF11C0F3FF125031EC3CF0156E19
:103F0000102AD8B0112AD8B0122A15C0E5FF00C077
:103F1000E9FF01C0F3FF0250F3EC3CF0002AD8B0F7
:103F2000012AD8B0022A1550DCE110C00BF011C0F4
:103F30000CF012C00DF000C008F001C009F002C082
:103F40000AF013C00EF014C00FF00E500F1027E14E
:103F50000650071009E0000EE56E08C0E9FF09C031
:103F6000F3FF0A50F3EC3CF00BC000F00CC001F082
:103F70000DC002F000C0E9FF01C0F3FF025031ECB8
:103F80003CF0066E002AD8B0012AD8B0022A0650AA
:103F9000F1E100C00BF001C00CF002C00DF00350C5
:103FA0000B5C036E04500C58046EFF0E0326D8A061
:103FB000040604C0F3FF0350E4CF15F0E4CF14F07F
:103FC000E4CF13F0E4CF12F0E4CF11F0E4CF10F01F
:103FD000E4CF0FF0E4CF0EF0E4CF0DF0E4CF0CF01F
:103FE000E4CF0BF0E4CF0AF0E4CF09F0E4CF08F01F
:103FF000E4CF07F0E4CF06F0E4CF05F0E4CF04F01F
:10400000E4CF03F0E4CF02F0E4CF01F0E4CF00F01E
:10401000E4CFD9FF1200D9CFE5FFE1CFD9FF00C02F
:10402000E5FF01C0E5FF02C0E5FF03C0E5FF04C0F6
:10403000E5FF05C0E5FF06C0E5FF07C0E5FF08C0D6
:10404000E5FF09C0E5FF020EDBCF00F0030EDBCF7A
:1040500001F0040EDBCF02F0C1EC37F0036E035029
:10406000FBE01A0EE56E0B0EE56EC0EC36F0020EAC
:10407000E126010EE56E000EF46E00C0E9FF01C0FE
:10408000F3FF0250D3EC3CF00050020F036E000E21
:104090000120046E000E0220056E000EE56E080E73
:1040A000F46E03C0E9FF04C0F3FF0550D3EC3CF00D
:1040B0000050040F036E000E0120046E000E02205B
:1040C000056E060EE56E03C0E9FF04C0F3FF055060
:1040D000F3EC3CF00050050F036E000E0120046E5F
:1040E000000E0220056E040EE56E03C0E9FF04C059
:1040F000F3FF0550F3EC3CF00050080F036E000E88
:104100000120046E000E0220056E0E0E076E2D0EAD
:10411000066E800E086E000EE56E060EE56E085007
:10412000E56E0750E56E0650E56E0550E56E0450ED
:10413000E56E0350E56E71EC2DF0080EE12600509F
:104140000E0F036E000E0120046E000E0220056E9D
:1041500000CE06F001CE07F002CE08F003CE09F043
:1041600006C0E5FF07C0F4FF08C0F6FF09C0F7FF6F
:1041700003C0E9FF04C0F3FF055062EC3CF00250BD
:10418000E56E0150E56E0050E56ECFEC27F0030EB2
:10419000E1260050120F036E000E0120046E000E87
:1041A0000220056E000EE56E1C0EE56E060EE56E35
:1041B0000550E56E0450E56E0350E56E2FEC27F0D8
:1041C000060EE126000EE56E1C0EE56E0250E56E51
:1041D0000150E56E0050E56E41EC34F0050EE1262D
:1041E0006CEC38F0010EE4CF09F0E4CF08F0E4CF36
:1041F00007F0E4CF06F0E4CF05F0E4CF04F0E4CF1D
:1042000003F0E4CF02F0E4CF01F0E4CF00F0E4CF1C
:10421000D9FF1200D9CFE5FFE1CFD9FF00C0E5FFFC
:1042200001C0E5FF02C0E5FF03C0E5FF04C0E5FFF4
:1042300005C0E5FF06C0E5FF07C0E5FF08C0E5FFD4
:10424000020EDBCF00F0030EDBCF01F0040EDBCF5C
:1042500002F0050EDBCF03F0060EDBCF04F0070EF5
:10426000DBCF05F0140E0A01616F450E0801786F6F
:104270000801796B140E0426D8B0052A04500801F1
:104280007A6F055008017B6F0801422B02E3080199
:10429000432B0801425108017C6F0801435108017A
:1042A0007D6F08017E6B08017F6B640E0801806FD3
:1042B00003500801816F0801826B0801836B0E01B6
:1042C00000510801846F0E0101510801856F0E0134
:1042D00002510801866F0E0103510801876F00C06B
:1042E000E9FF01C0F3FF025048EC3BF0036EF3CF4F
:1042F00006F0F4CF07F0E9CF08F003500801886F0B
:1043000006500801896F075008018A6F085008019C
:104310008B6F080E066E780E036E800E076E0750C8
:10432000E56E0650E56E0350E56E40EC25F0030E99
:10433000E126080E066E780E036E800E076E000EE4
:10434000E56E140EE56E0750E56E0650E56E0350FF
:10435000E56E7CEC0FF0036EF3CF06F0050EE12660
:1043600003500801826F06500801836F040E002677
:10437000000E0122000E02220550E56E0450E56E8B
:10438000000EE56E0250E56E0150E56E0050E56EE0
:104390002FEC27F0060EE126080E016E780E006E57
:1043A000800E026E000EE56E140EE56E0250E56E94
:1043B0000150E56E0050E56E41EC34F0050EE1264B
:1043C000F36AE86AE4CF08F0E4CF07F0E4CF06F040
:1043D000E4CF05F0E4CF04F0E4CF03F0E4CF02F043
:1043E000E4CF01F0E4CF00F0E4CFD9FF1200D9CF41
:1043F000E5FFE1CFD9FF00C0E5FF01C0E5FF02C046
:10440000E5FF03C0E5FF04C0E5FF05C0E5FF06C00A
:10441000E5FF07C0E5FF08C0E5FF09C0E5FF0AC0EA
:10442000E5FF0BC0E5FF0CC0E5FF0DC0E5FF020E88
:10443000DBCF00F0030EDBCF01F0040EDBCF02F088
:10444000050EDBCF03F0100E046E056A066A076ADC
:10445000040E055CD8B081D000C008F001C009F09E
:1044600002C00AF003C00BF0065011E009E6E86C48
:10447000D8900B320A3209320832010FFAE307D022
:10448000D890083609360A360B36010FFAE3096A66
:104490000A0EE56E0E0EE56E7C0EE56E0950E56EB9
:1044A0000850E56EFDEC37F0050EE12604C008F07B
:1044B000096A0E0E0B6E7C0E0A6E800E0C6E0C508E
:1044C000E56E0B50E56E0A50E56E42EC37F00A6E71
:1044D000F3CF0BF0030EE12609C00CF00D6A0D506E
:1044E000800FF36E0B50800FF35C02E10A500C5CFE
:1044F0001CE208C00AF0082A0B6A330E0A260E0EC8
:104500000B227C0E09240C6E0D6A0E0E0D220CC0BF
:10451000E9FF0DC0EAFFEFCF0CF00AC0E9FF0BC0C6
:10452000EAFF0CC0EFFF092AC4D708C004F0055009
:10453000030A13E00828046E096A330E08260E0EDB
:10454000092208C0E9FF09C0EAFF2E0EEF6E080E2F
:104550000626D8B0072A052A7BD704C000F0016AD6
:10456000000E015C02E1200E005C0BE2006A330EDB
:1045700004260E0E002204C0E9FF00C0EAFF000E70
:10458000EF6E39EC18F0E4CF0DF0E4CF0CF0E4CF8F
:104590000BF0E4CF0AF0E4CF09F0E4CF08F0E4CF69
:1045A00007F0E4CF06F0E4CF05F0E4CF04F0E4CF69
:1045B00003F0E4CF02F0E4CF01F0E4CF00F0E4CF69
:1045C000D9FF1200D9CFE5FFE1CFD9FF00C0E5FF49
:1045D00001C0E5FF02C0E5FF03C0E5FF04C0E5FF41
:1045E00005C0E5FF06C0E5FF07C0E5FF08C0E5FF21
:1045F00009C0E5FF0AC0E5FF0BC0E5FF0CC0E5FF01
:104600000DC0E5FF0EC0E5FF0FC0E5FF020EDBCFDA
:1046100000F0030EDBCF01F0040EDBCF02F0050E3D
:10462000DBCF03F0060EDBCF04F0070EDBCF05F087
:10463000080EDBCF06F0200E076E086A06C009F0F0
:104640000A6A0B6A0C6AE56AE56AE56A0950E56E72
:104650000350E56E0250E56E0150E56E0050E56EC8
:104660000BEC29F00D6E080EE126300E0D263A0EE9
:104670000D5C02E3270E0D26FF0E0726D8A00806C4
:10468000400E07240E6E0F0E08200F6E0EC0E9FFBD
:104690000FC0EAFF0DC0EFFF0C50E56E0B50E56E4A
:1046A0000A50E56E0950E56E0350E56E0250E56E66
:1046B0000150E56E0050E56EBAEC2AF0006EF3CFC3
:1046C00001F0F4CF02F0E9CF03F0080EE12600502C
:1046D000011002100310D8A4B1D707C000F008C021
:1046E00001F004C002F005C003F000C004F001C0F6
:1046F00005F0002AD8B0012A400E04260F0E05222C
:1047000004C0E9FF05C0EAFFEFCF04F002C0E9FFF3
:1047100003C0EAFF04C0EFFF022AD8B0032A000E4C
:10472000015C02E1200E005CE0E302C0E9FF03C08F
:10473000EAFF000EEF6AE4CF0FF0E4CF0EF0E4CF13
:104740000DF0E4CF0CF0E4CF0BF0E4CF0AF0E4CFAF
:1047500009F0E4CF08F0E4CF07F0E4CF06F0E4CFAF
:1047600005F0E4CF04F0E4CF03F0E4CF02F0E4CFAF
:1047700001F0E4CF00F0E4CFD9FF1200D9CFE5FF7C
:10478000E1CFD9FF00C0E5FF01C0E5FF02C0E5FFB2
:1047900003C0E5FF04C0E5FF05C0E5FF06C0E5FF77
:1047A00007C0E5FF020EDBCF00F0030EDBCF01F008
:1047B000040EDBCF02F0050EDBCF03F0060EDBCFDD
:1047C00004F0080E066EF60E056E800E076E000EE3
:1047D000E56E040EE56E0750E56E0650E56E055079
:1047E000E56ED1EC2FF0050EE1260801F651080A1E
:1047F00003E10801F75101E07ED00450E56E03505B
:10480000E56E000EE56E140EE56E2CEC2AF0056EDA
:10481000F3CF06F0040EE1260550061001E06BD040
:104820000801F66B080E0801F825056E0550080111
:10483000F86FF8C806F0076A000E075C02E1080E80
:10484000055C0DE2F9C805F0052A05500801F96F6D
:104850000801F95104E1062A06500801F86FC1EC7D
:1048600037F0056E0550FBE01A0EE56E190EE56E89
:10487000C0EC36F0020EE1260450E56E0350E56E02
:10488000010EE56E0250E56E0150E56E0050E56EDA
:104890000AEC21F0060EE126080E016EF60E006EFF
:1048A000800E026E000EE56E040EE56E0250E56E9F
:1048B0000150E56E0050E56E41EC34F0050EE12646
:1048C000FC0E0326D8A004060450E56E0350E56EE6
:1048D000FF0EE56EFF0EE56EFF0EE56EFF0EE56E58
:1048E00036EC0CF0060EE126CEEC3BF0006E0050EC
:1048F000FBE06CEC38F0E4CF07F0E4CF06F0E4CF57
:1049000005F0E4CF04F0E4CF03F0E4CF02F0E4CF0D
:1049100001F0E4CF00F0E4CFD9FF1200D9CFE5FFDA
:10492000E1CFD9FF00C0E5FF01C0E5FF02C0E5FF10
:1049300003C0E5FF04C0E5FF05C0E5FF06C0E5FFD5
:1049400007C0E5FF08C0E5FF09C0E5FF0AC0E5FFB5
:10495000020EDBCF00F0030EDBCF01F0040EDBCF45
:1049600002F0050EDBCF03F0060EDBCF04F0070EDE
:10497000DBCF05F098C806F099C807F09AC808F090
:104980009BC809F000C0E9FF01C0F3FF025048ECEA
:104990003BF0006EF3CF01F0F4CF02F0E9CF0AF064
:1049A0000650001809E10750011806E108500218E6
:1049B00003E109500A182EE006500E0108190CE117
:1049C00007500E01091908E108500E010A1904E107
:1049D00009500E010B1901E039D00E010051001AE7
:1049E0000E010151011A0E010251021A0E0103516A
:1049F0000A1A0E01045100160E01055101160E018E
:104A0000065102160E0107510A160050011002103D
:104A10000A101CE0080E016E9C0E006E800E026EE5
:104A2000000EE56E060EE56E0250E56E0150E56E75
:104A30000050E56E0550E56E0450E56E0350E56EDE
:104A400071EC2DF0080EE126010E01D0E86AE4CFEA
:104A50000AF0E4CF09F0E4CF08F0E4CF07F0E4CFA8
:104A600006F0E4CF05F0E4CF04F0E4CF03F0E4CFA8
:104A700002F0E4CF01F0E4CF00F0E4CFD9FF120060
:104A8000D9CFE5FFE1CFD9FF00C0E5FF01C0E5FFC9
:104A900002C0E5FF03C0E5FF04C0E5FF05C0E5FF78
:104AA00006C0E5FF07C0E5FF020EDBCF00F0030EF6
:104AB000DBCF01F0040EDBCF02F00050020F036EDB
:104AC000000E0120046E000E0220056E03C0E9FFF7
:104AD00004C0F3FF0550B8EC3BF0066EF3CF07F0CF
:104AE0000750E56E0650E56EB1EC39F0066EF3CF77
:104AF00007F0020EE12606C0E5FF07C0F4FF03C081
:104B0000E9FF04C0F3FF0550D3EC3CF00050040F64
:104B1000036E000E0120046E000E0220056E03C01D
:104B2000E9FF04C0F3FF0550B8EC3BF0066EF3CF8D
:104B300007F00750E56E0650E56EB1EC39F0066EF1
:104B4000F3CF07F0020EE12606C0E5FF07C0F4FF31
:104B500003C0E9FF04C0F3FF0550D3EC3CF00A0E9C
:104B60000026000E0122000E022200C0E9FF01C053
:104B7000F3FF0250B8EC3BF0036EF3CF04F00450A7
:104B8000E56E0350E56EB1EC39F0036EF3CF04F03F
:104B9000020EE12603C0E5FF04C0F4FF00C0E9FFF8
:104BA00001C0F3FF0250D3EC3CF0E4CF07F0E4CFB8
:104BB00006F0E4CF05F0E4CF04F0E4CF03F0E4CF57
:104BC00002F0E4CF01F0E4CF00F0E4CFD9FF12000F
:104BD000D9CFE5FFE1CFD9FF00C0E5FF01C0E5FF78
:104BE00002C0E5FF03C0E5FF04C0E5FF05C0E5FF27
:104BF00006C0E5FF07C0E5FF020EDBCF00F00B0E9D
:104C00007A6E1A0E7B6E0F0E026E000E016E800E13
:104C1000036E000EE56E400EE56E0350E56E025029
:104C2000E56E0150E56ED1EC2FF0050EE126D8902F
:104C30000036016A026A036A100E015CD8B057D0D0
:104C400000500124046E056A000E04260F0E052292
:104C500004C0E9FF05C0EAFFEFCF04F004380F0BF2
:104C6000046E0F0E0416330E0224056E066A0E0E35
:104C700006220A0E045C03E2300E076E02D0410EDB
:104C8000076E0450072605C0E9FF06C0EAFF07C00B
:104C9000EFFF00500124056E066A000E05260F0E78
:104CA000062205C0E9FF06C0EAFFEFCF05F00F0EB0
:104CB0000514046E0328056E066A330E05260E0ED3
:104CC00006220A0E045C03E2300E076E02D0410E8B
:104CD000076E0750042605C0E9FF06C0EAFF04C0BE
:104CE000EFFF022A022A032A032A012AA5D70E016E
:104CF000536B39EC18F0E4CF07F0E4CF06F0E4CFC3
:104D000005F0E4CF04F0E4CF03F0E4CF02F0E4CF09
:104D100001F0E4CF00F0E4CFD9FF120068EC3BF0E3
:104D20009FEC1AF0100E006E980E016E020E026ECD
:104D3000036A00C004F001C005F002C006F003C021
:104D400007F0FF0E0026FF0E0122FF0E0222FF0ECB
:104D500003220450051006100710EBE1000EE56E6B
:104D6000710EE56E980EE56E000EE56E21EC31F0E9
:104D7000040EE126ADEC3CF0E9EC2CF0F8EC35F05B
:104D800027EC3BF0006EF3CF01F0F4CF02F0E9CF57
:104D900003F008013851005C046E080139510158D4
:104DA000056E08013A510258066E08013B5103583E
:104DB000076E000E075C08E1000E065C05E1000EC0
:104DC000055C02E1270E045C15E300C038F801C061
:104DD00039F802C03AF803C03BF8006A91B0002AE3
:104DE000010E001A0050010BF46E9150FE0BF410EE
:104DF000916E0400E5EC0DF000CE00F001CE01F064
:104E000002CE02F003CE03F008013C5100180DE180
:104E100008013D51011809E108013E51021805E160
:104E200008013F51031801E1ABD700C03CF801C0B5
:104E30003DF802C03EF803C03FF808013F51E56E5F
:104E400008013E51E56E08013D51E56E08013C51F7
:104E5000E56EF7EC21F0040EE12692D71200D9CFCF
:104E6000E5FFE1CFD9FF00C0E5FF01C0E5FF02C0CB
:104E7000E5FF03C0E5FF04C0E5FF05C0E5FF06C090
:104E8000E5FF07C0E5FF08C0E5FF09C0E5FF020E2A
:104E9000DBCF00F0030EDBCF01F0040EDBCF02F01E
:104EA000050EDBCF03F0060EDBCF04F0070EDBCFE1
:104EB00005F00B0E0E01E26F1A0E0E01E36F04C037
:104EC00006F005C007F0086A096A180E06261A0ED1
:104ED0000722000E0822000E09220650046E075019
:104EE000056E0450066E076A06500E01E66F055007
:104EF000046E056A056A04500E01E76F000EE56E48
:104F0000060EE56E0250E56E0150E56E0050E56E4E
:104F100041EC34F0050EE1260E0E016E2D0E006EF2
:104F2000800E026E000EE56E060EE56E0250E56E16
:104F30000150E56E0050E56E41EC34F0050EE126BF
:104F4000080EE56EDFEC3CF0E12A0350D880E866FD
:104F5000D890036A0336035003E0006A016A03D065
:104F6000060E006E016A0050E56EDFEC3CF0E12AAF
:104F7000E4CF09F0E4CF08F0E4CF07F0E4CF06F087
:104F8000E4CF05F0E4CF04F0E4CF03F0E4CF02F087
:104F9000E4CF01F0E4CF00F0E4CFD9FF1200D9CF85
:104FA000E5FFE1CFD9FF00C0E5FF01C0E5FF02C08A
:104FB000E5FF03C0E5FF04C0E5FF05C0E5FF06C04F
:104FC000E5FF07C0E5FF020EDBCF00F0030EDBCFED
:104FD00001F0040EDBCF02F000C0E9FF01C0F3FFD7
:104FE0000250B8EC3BF0036EF3CF04F00450E56ED2
:104FF0000350E56EB1EC39F0036EF3CF04F0020E0E
:10500000E12603C0E5FF04C0F4FF00C0E9FF01C0D2
:10501000F3FF0250D3EC3CF00050020F036E000E81
:105020000120046E000E0220056E03C0E9FF04C0DB
:10503000F3FF0550B8EC3BF0066EF3CF07F00750D6
:10504000E56E0650E56EB1EC39F0066EF3CF07F071
:10505000020EE12606C0E5FF07C0F4FF03C0E9FF2A
:1050600004C0F3FF0550D3EC3CF0060E0026000E02
:105070000122000E022200C0E9FF01C0F3FF02502E
:10508000B8EC3BF0036EF3CF04F00450E56E035030
:10509000E56EB1EC39F0036EF3CF04F0020EE126B9
:1050A00003C0E5FF04C0F4FF00C0E9FF01C0F3FF47
:1050B0000250D3EC3CF0E4CF07F0E4CF06F0E4CFAD
:1050C00005F0E4CF04F0E4CF03F0E4CF02F0E4CF46
:1050D00001F0E4CF00F0E4CFD9FF1200D9CFE5FF13
:1050E000E1CFD9FF00C0E5FF01C0E5FF02C0E5FF49
:1050F00003C0E5FF04C0E5FF05C0E5FF06C0E5FF0E
:1051000007C0E5FF020EDBCF00F0030EDBCF01F09E
:10511000040EDBCF02F0010E0801066F0801076BD9
:105120000801126908011369080114690801156969
:10513000080116690801176900C0E9FF01C0F3FF03
:10514000025048EC3BF0006EF3CF01F0F4CF02F0D8
:10515000E9CF03F000500E010019046E01500E015A
:105160000119056E02500E010219066E03500E0160
:105170000319076E0E01045104160E0105510516A0
:105180000E01065106160E010751071604500510B0
:105190000610071009E008CE04F009CE05F00ACE8B
:1051A00006F00BCE07F008D000C004F001C005F0F7
:1051B00002C006F003C007F004500801186F055044
:1051C0000801196F065008011A6F075008011B6F7C
:1051D000080E016E000E006E800E026E0250E56E2B
:1051E0000150E56E0050E56E0BEC20F0030EE12659
:1051F000E4CF07F0E4CF06F0E4CF05F0E4CF04F00D
:10520000E4CF03F0E4CF02F0E4CF01F0E4CF00F00C
:10521000E4CFD9FF1200D9CFE5FFE1CFD9FF00C01D
:10522000E5FF01C0E5FF02C0E5FF03C0E5FF04C0E4
:10523000E5FF05C0E5FF06C0E5FF07C0E5FF08C0C4
:10524000E5FF09C0E5FF0AC0E5FF020EDBCF00F075
:10525000030EDBCF01F0040EDBCF02F0050EDBCF37
:1052600003F0060EDBCF04F0070EDBCF05F0080ECF
:10527000DBCF06F0090EDBCF07F0086A096A0744A6
:10528000010B0A6E0AB01BD0045004260536063600
:1052900007360750035C08E10650025C05E1055043
:1052A000015C02E10450005C06E2D890073206324D
:1052B0000532043204D0092A09C008F0E0D70750AB
:1052C000035C08E10650025C05E10550015C02E167
:1052D0000450005C08E30450005E0550015A06507B
:1052E000025A0750035AD890073206320532043268
:1052F00008C009F008060950E2E103C0E9FF02C056
:10530000F4FF01C0F3FF0050E4CF0AF0E4CF09F04E
:10531000E4CF08F0E4CF07F0E4CF06F0E4CF05F0E7
:10532000E4CF04F0E4CF03F0E4CF02F0E4CF01F0E7
:10533000E4CF00F0E4CFD9FF1200D9CFE5FFE1CFF1
:10534000D9FF00C0E5FF01C0E5FF02C0E5FF03C0D3
:10535000E5FF04C0E5FF05C0E5FF020EDBCF00F06E
:10536000030EDBCF01F0040EDBCF02F0036A046A08
:105370000A0EE56E080EE56ECE0EE56E0450E56E83
:105380000350E56E0250E56E0150E56EE2EC22F04E
:10539000070EE126016A080E036ECE0E026E800E25
:1053A000046E0450E56E0350E56E0250E56E42EC6B
:1053B00037F0026EF3CF03F0030EE12601C004F0D4
:1053C000056A0550800FF36E0350800FF35C02E115
:1053D0000250045C1CE200C002F0002A036A330E93
:1053E00002260E0E0322CE0E0124046E056A080E5C
:1053F000052204C0E9FF05C0EAFFEFCF04F002C0B8
:10540000E9FF03C0EAFF04C0EFFF012AC4D700C0D0
:1054100001F0026A000E025C02E1200E015C0BE268
:10542000016A330E00260E0E012200C0E9FF01C002
:10543000EAFF000EEF6E39EC18F0E4CF05F0E4CF90
:1054400004F0E4CF03F0E4CF02F0E4CF01F0E4CFC6
:1054500000F0E4CFD9FF1200D9CFE5FFE1CFD9FFAB
:1054600000C0E5FF01C0E5FF02C0E5FF03C0E5FFA6
:1054700004C0E5FF05C0E5FF06C0E5FF07C0E5FF86
:10548000020EDBCF00F0030EDBCF01F0040EDBCF0A
:1054900002F0050EDBCF03F00A012751140F046E52
:1054A000000E0A012821056E045000260550012235
:1054B00000C004F001C005F0066A076A000E075C30
:1054C00008E1000E065C05E11A0E055C02E10A0E19
:1054D000045C0CE3F60E0426E50E0522FF0E062200
:1054E000FF0E07220450006E0550016E7BCF04F0C2
:1054F000056A0450076E066A7ACF04F0056A045004
:105500000612055007120050046E056A04507A6EA8
:105510000150046E056A056A04507B6E0350E56E07
:105520000250E56EF8EC06F0006EF3CF01F0020ECB
:10553000E1260650026E036A02507A6E0750066E2C
:10554000076A076A06507B6E01C0F3FF0050E4CF84
:1055500007F0E4CF06F0E4CF05F0E4CF04F0E4CFA9
:1055600003F0E4CF02F0E4CF01F0E4CF00F0E4CFA9
:10557000D9FF1200D9CFE5FFE1CFD9FF00C0E5FF89
:1055800001C0E5FF02C0E5FF03C0E5FF04C0E5FF81
:1055900005C0E5FF06C0E5FF07C0E5FF08C0E5FF61
:1055A00009C0E5FF0AC0E5FF0BC0E5FF0CC0E5FF41
:1055B0000DC0E5FF020EDBCF00F0030EDBCF01F0E4
:1055C000040EDBCF02F0050EDBCF03F0060EDBCFBF
:1055D00004F0070EDBCF05F0080EDBCF06F0090E56
:1055E000DBCF07F0086A096A0A6A0B6A200E0C6EA4
:1055F0000344010B0D6E010E0D16005000260136FE
:10560000023603360850082609360A360B360D5086
:10561000D8A4088007500B5C08E106500A5C05E13D
:105620000550095C02E10450085C09E30450085E7F
:105630000550095A06500A5A07500B5A00800C2E82
:10564000D7D703C0E9FF02C0F4FF01C0F3FF005049
:10565000E4CF0DF0E4CF0CF0E4CF0BF0E4CF0AF090
:10566000E4CF09F0E4CF08F0E4CF07F0E4CF06F090
:10567000E4CF05F0E4CF04F0E4CF03F0E4CF02F090
:10568000E4CF01F0E4CF00F0E4CFD9FF1200D9CF8E
:10569000E5FFE1CFD9FF929092920E01FE8B0E01B1
:1056A000FDA1FDD7010E0A015E6F0801FE6B080126
:1056B000FF6B0E01E86B0E01E96B090E0E01EC6F3A
:1056C0001A0E0E01ED6F090E0E01EA6F1A0E0E0191
:1056D000EB6F0A0E0E01E46F1A0E0E01E56F0A0E53
:1056E0000E01E26F1A0E0E01E36F616A0D0E0E01DC
:1056F000A06F0000320E0E01A26F0000120E0E010C
:10570000A46F0000400E0E01A36F0000120E0E01E8
:10571000A66F00000C0E0E01A76F0000EE0E0E012A
:10572000AA6F0000050E0E01AB6F00002DCE84FEA7
:1057300000002ECE85FE00002FCE82FE000030CE6F
:1057400083FE000031CE80FE000032CE81FE0000DC
:10575000010EE56E100EE56E100EE56E2CEC3AF0C3
:10576000030EE126340EE56E720EE56E140EE56E44
:105770002CEC3AF0030EE126000EE56E000EE56E0D
:10578000000EE56E2CEC3AF0030EE126D284E4CF55
:10579000D9FF12006572726F722072656164696E62
:1057A000672068647200D9CFE5FFE1CFD9FF00C060
:1057B000E5FF01C0E5FF02C0E5FF03C0E5FF04C04F
:1057C000E5FF05C0E5FF0E01D9510A012F6FEFCEAD
:1057D00000F0016A0050036E026AEECE00F0016A2A
:1057E000005002120150031202500A01316F03509F
:1057F0000A01326F0E01D9510A012F19E4E1EDCEF1
:1058000000F0016A0050036E026AECCE00F0016AFB
:10581000005002120150031202500A012F6F035070
:105820000A01306F2FCA00F030CA01F00A0132516C
:10583000015C03E10A013151005C17E200500A01EA
:10584000315D026E01500A013259036E046A056A25
:1058500002500908026E1A0E0356000E0456000E7E
:10586000055603C0F3FF02501AD00A013151001847
:1058700004E10A013251011801E004D01A0EF36E5E
:10588000090E0DD00A013151005E0A013251015A50
:10589000FF0E0026D8A0010601C0F3FF0050E4CFA0
:1058A00005F0E4CF04F0E4CF03F0E4CF02F0E4CF5E
:1058B00001F0E4CF00F0E4CFD9FF1200D9CFE5FF2B
:1058C000E1CFD9FF00C0E5FF01C0E5FF02C0E5FF61
:1058D00003C0E5FF020EDBCF00F0030EDBCF01F0CB
:1058E0000050026E02500A01456F0150006E016ABD
:1058F00000500A01466F46CA01F0026A0250800F4A
:10590000800F02E1470E005C05E3E00E0126015026
:105910000A01466F45CA00F000C001F0026A025059
:10592000800F800F02E1470E015C05E3E00E0026C8
:1059300000500A01456F46CA00F000C001F0026A3B
:105940000250800F800F02E13A0E015C07E3C90E9E
:105950000024016E01500A01466F05D0D00E0026CA
:1059600000500A01466F45CA00F000C001F0026A0B
:105970000250800F800F02E13A0E015C07E3C90E6E
:105980000024016E01500A01456F05D0D00E00269B
:1059900000500A01456F46CA00F0016A0138F00B59
:1059A000036E0038026E0F0B021A032645CA00F080
:1059B000016A00500212015003120250E4CF03F0BA
:1059C000E4CF02F0E4CF01F0E4CF00F0E4CFD9FF60
:1059D0001200D9CFE5FFE1CFD9FF00C0E5FF01C03C
:1059E000E5FF02C0E5FF03C0E5FF0E012C8D0E01AF
:1059F0002C8F0E012D6B040E0E012E6FA30E0E01C7
:105A00002F6F010E0E01306F020E0E01316F030E6B
:105A10000E01326FC00E0E01006FA80E0E01016F55
:105A2000610E0E01026F3C0E0E01036F00CE00F0FE
:105A300001CE01F002CE02F003CE03F000500E01C1
:105A4000146F01500E01156F02500E01166F0350B6
:105A50000E01176F0E0104690E0105690E0106693A
:105A60000E01076B04CE00F005CE01F006CE02F069
:105A700007CE03F000500E01186F01500E01196F90
:105A800002500E011A6F03500E011B6FC00E0E0163
:105A9000086FA80E0E01096F610E0E010A6F010E4C
:105AA0000E010B6FC00E0E010C6FA80E0E010D6FD4
:105AB000610E0E010E6F010E0E010F6F0E01106BC5
:105AC0000E01116B0E01126B0E01136BE4CF03F08C
:105AD000E4CF02F0E4CF01F0E4CF00F0E4CFD9FF4F
